{
  "_format": "hh-sol-artifact-1",
  "contractName": "Bank",
  "sourceName": "contracts/Bank.sol",
  "abi": [
    {
      "inputs": [],
      "stateMutability": "payable",
      "type": "constructor"
    },
    {
      "inputs": [
        {
          "internalType": "uint256",
          "name": "",
          "type": "uint256"
        }
      ],
      "name": "allBills",
      "outputs": [
        {
          "internalType": "uint256",
          "name": "id",
          "type": "uint256"
        },
        {
          "internalType": "uint256",
          "name": "amount",
          "type": "uint256"
        },
        {
          "internalType": "uint256",
          "name": "timestamp",
          "type": "uint256"
        },
        {
          "internalType": "address",
          "name": "issuer",
          "type": "address"
        },
        {
          "internalType": "address",
          "name": "recipient",
          "type": "address"
        },
        {
          "internalType": "enum Bank.BillStatus",
          "name": "status",
          "type": "uint8"
        }
      ],
      "stateMutability": "view",
      "type": "function"
    },
    {
      "inputs": [
        {
          "internalType": "uint256",
          "name": "_id",
          "type": "uint256"
        }
      ],
      "name": "beforeDueDate",
      "outputs": [
        {
          "internalType": "bool",
          "name": "",
          "type": "bool"
        }
      ],
      "stateMutability": "view",
      "type": "function"
    },
    {
      "inputs": [
        {
          "internalType": "uint256",
          "name": "_id",
          "type": "uint256"
        }
      ],
      "name": "cashBill",
      "outputs": [],
      "stateMutability": "payable",
      "type": "function"
    },
    {
      "inputs": [
        {
          "internalType": "uint256",
          "name": "_id",
          "type": "uint256"
        }
      ],
      "name": "completeBill",
      "outputs": [],
      "stateMutability": "payable",
      "type": "function"
    },
    {
      "inputs": [],
      "name": "discountRate",
      "outputs": [
        {
          "internalType": "uint256",
          "name": "",
          "type": "uint256"
        }
      ],
      "stateMutability": "view",
      "type": "function"
    },
    {
      "inputs": [
        {
          "internalType": "uint256",
          "name": "",
          "type": "uint256"
        }
      ],
      "name": "dishonoredAddresses",
      "outputs": [
        {
          "internalType": "address",
          "name": "",
          "type": "address"
        }
      ],
      "stateMutability": "view",
      "type": "function"
    },
    {
      "inputs": [
        {
          "internalType": "uint256",
          "name": "_id",
          "type": "uint256"
        }
      ],
      "name": "getAmountToCashBill",
      "outputs": [
        {
          "internalType": "uint256",
          "name": "",
          "type": "uint256"
        }
      ],
      "stateMutability": "view",
      "type": "function"
    },
    {
      "inputs": [
        {
          "internalType": "uint256",
          "name": "_id",
          "type": "uint256"
        }
      ],
      "name": "getAmountToPayBill",
      "outputs": [
        {
          "internalType": "uint256",
          "name": "",
          "type": "uint256"
        }
      ],
      "stateMutability": "view",
      "type": "function"
    },
    {
      "inputs": [],
      "name": "getBalance",
      "outputs": [
        {
          "internalType": "uint256",
          "name": "",
          "type": "uint256"
        }
      ],
      "stateMutability": "view",
      "type": "function"
    },
    {
      "inputs": [],
      "name": "getNumberOfBills",
      "outputs": [
        {
          "internalType": "uint256",
          "name": "",
          "type": "uint256"
        }
      ],
      "stateMutability": "view",
      "type": "function"
    },
    {
      "inputs": [],
      "name": "getNumberOfDishonoredAddresses",
      "outputs": [
        {
          "internalType": "uint256",
          "name": "",
          "type": "uint256"
        }
      ],
      "stateMutability": "view",
      "type": "function"
    },
    {
      "inputs": [],
      "name": "interestRate",
      "outputs": [
        {
          "internalType": "uint256",
          "name": "",
          "type": "uint256"
        }
      ],
      "stateMutability": "view",
      "type": "function"
    },
    {
      "inputs": [
        {
          "internalType": "uint256",
          "name": "_amount",
          "type": "uint256"
        },
        {
          "internalType": "address",
          "name": "_recipient",
          "type": "address"
        }
      ],
      "name": "issueBill",
      "outputs": [],
      "stateMutability": "nonpayable",
      "type": "function"
    },
    {
      "inputs": [],
      "name": "lockToken",
      "outputs": [],
      "stateMutability": "payable",
      "type": "function"
    },
    {
      "inputs": [],
      "name": "term",
      "outputs": [
        {
          "internalType": "uint256",
          "name": "",
          "type": "uint256"
        }
      ],
      "stateMutability": "view",
      "type": "function"
    }
  ],
  "bytecode": "0x6080604052611586806100136000396000f3fe6080604052600436106100e75760003560e01c8063a10ffbed1161008a578063e5bb0b2c11610059578063e5bb0b2c146102ce578063e6c0e6d51461030b578063ef857f2014610336578063fb4de28314610373576100e7565b8063a10ffbed14610252578063b11df6801461027d578063bca7a9e2146102a8578063dac67efa146102b2576100e7565b806353ebde5f116100c657806353ebde5f146101825780635f868417146101bf5780637c3a00fd146101ea5780639d4b54d414610215576100e7565b806249f41a146100ec57806312065fe01461012e57806333179dfe14610159575b600080fd5b3480156100f857600080fd5b50610113600480360381019061010e9190610fb4565b61038f565b604051610125969594939291906110a8565b60405180910390f35b34801561013a57600080fd5b50610143610428565b6040516101509190611109565b60405180910390f35b34801561016557600080fd5b50610180600480360381019061017b9190611150565b61046f565b005b34801561018e57600080fd5b506101a960048036038101906101a49190610fb4565b6105f3565b6040516101b69190611190565b60405180910390f35b3480156101cb57600080fd5b506101d4610632565b6040516101e19190611109565b60405180910390f35b3480156101f657600080fd5b506101ff61063f565b60405161020c9190611109565b60405180910390f35b34801561022157600080fd5b5061023c60048036038101906102379190610fb4565b610644565b6040516102499190611109565b60405180910390f35b34801561025e57600080fd5b506102676107ac565b6040516102749190611109565b60405180910390f35b34801561028957600080fd5b506102926107b3565b60405161029f9190611109565b60405180910390f35b6102b06107bf565b005b6102cc60048036038101906102c79190610fb4565b610817565b005b3480156102da57600080fd5b506102f560048036038101906102f09190610fb4565b61098f565b6040516103029190611109565b60405180910390f35b34801561031757600080fd5b50610320610b13565b60405161032d9190611109565b60405180910390f35b34801561034257600080fd5b5061035d60048036038101906103589190610fb4565b610b18565b60405161036a91906111c6565b60405180910390f35b61038d60048036038101906103889190610fb4565b610c7d565b005b6000818154811061039f57600080fd5b90600052602060002090600502016000915090508060000154908060010154908060020154908060030160009054906101000a900473ffffffffffffffffffffffffffffffffffffffff16908060040160009054906101000a900473ffffffffffffffffffffffffffffffffffffffff16908060040160149054906101000a900460ff16905086565b6000600260003373ffffffffffffffffffffffffffffffffffffffff1673ffffffffffffffffffffffffffffffffffffffff16815260200190815260200160002054905090565b60006040518060c0016040528060008054905081526020018481526020014281526020013373ffffffffffffffffffffffffffffffffffffffff1681526020018373ffffffffffffffffffffffffffffffffffffffff168152602001600060038111156104df576104de611031565b5b8152509050600081908060018154018082558091505060019003906000526020600020906005020160009091909190915060008201518160000155602082015181600101556040820151816002015560608201518160030160006101000a81548173ffffffffffffffffffffffffffffffffffffffff021916908373ffffffffffffffffffffffffffffffffffffffff16021790555060808201518160040160006101000a81548173ffffffffffffffffffffffffffffffffffffffff021916908373ffffffffffffffffffffffffffffffffffffffff16021790555060a08201518160040160146101000a81548160ff021916908360038111156105e7576105e6611031565b5b02179055505050505050565b6001818154811061060357600080fd5b906000526020600020016000915054906101000a900473ffffffffffffffffffffffffffffffffffffffff1681565b6000600180549050905090565b600a81565b6000806000838154811061065b5761065a6111e1565b5b90600052602060002090600502016040518060c00160405290816000820154815260200160018201548152602001600282015481526020016003820160009054906101000a900473ffffffffffffffffffffffffffffffffffffffff1673ffffffffffffffffffffffffffffffffffffffff1673ffffffffffffffffffffffffffffffffffffffff1681526020016004820160009054906101000a900473ffffffffffffffffffffffffffffffffffffffff1673ffffffffffffffffffffffffffffffffffffffff1673ffffffffffffffffffffffffffffffffffffffff1681526020016004820160149054906101000a900460ff16600381111561076357610762611031565b5b600381111561077557610774611031565b5b8152505090506064600a606461078b919061123f565b826020015161079a9190611273565b6107a491906112e4565b915050919050565b624f1a0081565b60008080549050905090565b34600260003373ffffffffffffffffffffffffffffffffffffffff1673ffffffffffffffffffffffffffffffffffffffff168152602001908152602001600020600082825461080e919061123f565b92505081905550565b600080828154811061082c5761082b6111e1565b5b90600052602060002090600502019050600060038111156108505761084f611031565b5b8160040160149054906101000a900460ff16600381111561087457610873611031565b5b146108b4576040517f08c379a00000000000000000000000000000000000000000000000000000000081526004016108ab90611372565b60405180910390fd5b3373ffffffffffffffffffffffffffffffffffffffff168160040160009054906101000a900473ffffffffffffffffffffffffffffffffffffffff1673ffffffffffffffffffffffffffffffffffffffff1614610946576040517f08c379a000000000000000000000000000000000000000000000000000000000815260040161093d906113de565b60405180910390fd5b60018160040160146101000a81548160ff0219169083600381111561096e5761096d611031565b5b0217905550600061097e8361098f565b905061098a3382610ec8565b505050565b600080600083815481106109a6576109a56111e1565b5b90600052602060002090600502016040518060c00160405290816000820154815260200160018201548152602001600282015481526020016003820160009054906101000a900473ffffffffffffffffffffffffffffffffffffffff1673ffffffffffffffffffffffffffffffffffffffff1673ffffffffffffffffffffffffffffffffffffffff1681526020016004820160009054906101000a900473ffffffffffffffffffffffffffffffffffffffff1673ffffffffffffffffffffffffffffffffffffffff1673ffffffffffffffffffffffffffffffffffffffff1681526020016004820160149054906101000a900460ff166003811115610aae57610aad611031565b5b6003811115610ac057610abf611031565b5b815250509050610acf83610b18565b15610b05576064600a6064610ae491906113fe565b8260200151610af39190611273565b610afd91906112e4565b915050610b0e565b80602001519150505b919050565b600a81565b60008060008381548110610b2f57610b2e6111e1565b5b90600052602060002090600502016040518060c00160405290816000820154815260200160018201548152602001600282015481526020016003820160009054906101000a900473ffffffffffffffffffffffffffffffffffffffff1673ffffffffffffffffffffffffffffffffffffffff1673ffffffffffffffffffffffffffffffffffffffff1681526020016004820160009054906101000a900473ffffffffffffffffffffffffffffffffffffffff1673ffffffffffffffffffffffffffffffffffffffff1673ffffffffffffffffffffffffffffffffffffffff1681526020016004820160149054906101000a900460ff166003811115610c3757610c36611031565b5b6003811115610c4957610c48611031565b5b815250509050624f1a008160400151610c62919061123f565b4211610c72576001915050610c78565b60009150505b919050565b6000808281548110610c9257610c916111e1565b5b90600052602060002090600502019050610cab82610b18565b15610ceb576040517f08c379a0000000000000000000000000000000000000000000000000000000008152600401610ce29061147e565b60405180910390fd5b6000610cf683610644565b9050600260008360030160009054906101000a900473ffffffffffffffffffffffffffffffffffffffff1673ffffffffffffffffffffffffffffffffffffffff1673ffffffffffffffffffffffffffffffffffffffff168152602001908152602001600020548111610e0e5780600260008460030160009054906101000a900473ffffffffffffffffffffffffffffffffffffffff1673ffffffffffffffffffffffffffffffffffffffff1673ffffffffffffffffffffffffffffffffffffffff1681526020019081526020016000206000828254610dd591906113fe565b9250508190555060028260040160146101000a81548160ff02191690836003811115610e0457610e03611031565b5b0217905550610ec3565b60038260040160146101000a81548160ff02191690836003811115610e3657610e35611031565b5b021790555060018260030160009054906101000a900473ffffffffffffffffffffffffffffffffffffffff169080600181540180825580915050600190039060005260206000200160009091909190916101000a81548173ffffffffffffffffffffffffffffffffffffffff021916908373ffffffffffffffffffffffffffffffffffffffff1602179055505b505050565b60008273ffffffffffffffffffffffffffffffffffffffff1682604051610eee906114cf565b60006040518083038185875af1925050503d8060008114610f2b576040519150601f19603f3d011682016040523d82523d6000602084013e610f30565b606091505b5050905080610f74576040517f08c379a0000000000000000000000000000000000000000000000000000000008152600401610f6b90611530565b60405180910390fd5b505050565b600080fd5b6000819050919050565b610f9181610f7e565b8114610f9c57600080fd5b50565b600081359050610fae81610f88565b92915050565b600060208284031215610fca57610fc9610f79565b5b6000610fd884828501610f9f565b91505092915050565b610fea81610f7e565b82525050565b600073ffffffffffffffffffffffffffffffffffffffff82169050919050565b600061101b82610ff0565b9050919050565b61102b81611010565b82525050565b7f4e487b7100000000000000000000000000000000000000000000000000000000600052602160045260246000fd5b6004811061107157611070611031565b5b50565b600081905061108282611060565b919050565b600061109282611074565b9050919050565b6110a281611087565b82525050565b600060c0820190506110bd6000830189610fe1565b6110ca6020830188610fe1565b6110d76040830187610fe1565b6110e46060830186611022565b6110f16080830185611022565b6110fe60a0830184611099565b979650505050505050565b600060208201905061111e6000830184610fe1565b92915050565b61112d81611010565b811461113857600080fd5b50565b60008135905061114a81611124565b92915050565b6000806040838503121561116757611166610f79565b5b600061117585828601610f9f565b92505060206111868582860161113b565b9150509250929050565b60006020820190506111a56000830184611022565b92915050565b60008115159050919050565b6111c0816111ab565b82525050565b60006020820190506111db60008301846111b7565b92915050565b7f4e487b7100000000000000000000000000000000000000000000000000000000600052603260045260246000fd5b7f4e487b7100000000000000000000000000000000000000000000000000000000600052601160045260246000fd5b600061124a82610f7e565b915061125583610f7e565b925082820190508082111561126d5761126c611210565b5b92915050565b600061127e82610f7e565b915061128983610f7e565b925082820261129781610f7e565b915082820484148315176112ae576112ad611210565b5b5092915050565b7f4e487b7100000000000000000000000000000000000000000000000000000000600052601260045260246000fd5b60006112ef82610f7e565b91506112fa83610f7e565b92508261130a576113096112b5565b5b828204905092915050565b600082825260208201905092915050565b7f537461747573206973206e6f7420497375656400000000000000000000000000600082015250565b600061135c601383611315565b915061136782611326565b602082019050919050565b6000602082019050818103600083015261138b8161134f565b9050919050565b7f596f757220617265206e6f7420726563697069656e7400000000000000000000600082015250565b60006113c8601683611315565b91506113d382611392565b602082019050919050565b600060208201905081810360008301526113f7816113bb565b9050919050565b600061140982610f7e565b915061141483610f7e565b925082820390508181111561142c5761142b611210565b5b92915050565b7f4265666f72652064756520646174650000000000000000000000000000000000600082015250565b6000611468600f83611315565b915061147382611432565b602082019050919050565b600060208201905081810360008301526114978161145b565b9050919050565b600081905092915050565b50565b60006114b960008361149e565b91506114c4826114a9565b600082019050919050565b60006114da826114ac565b9150819050919050565b7f4661696c656420746f2073656e64204156415800000000000000000000000000600082015250565b600061151a601383611315565b9150611525826114e4565b602082019050919050565b600060208201905081810360008301526115498161150d565b905091905056fea2646970667358221220b85eb019a2f0207400db924b273024deb4f1f9ea0a2adc5d43e71dbfce5644ce64736f6c63430008110033",
  "linkReferences": {},
  "deployedLinkReferences": {}
}